:100000000C94EC010C9433020C9433020C943302E4
:100010000C9433020C9433020C9433020C9433028C
:100020000C9433020C9433020C94D31B0C94A61C36
:100030000C9447130C9433020C9433020C94330247
:100040000C9433020C9433020C9433020C9433025C
:100050000C9433020C94AF130C9433020C943302BF
:100060000C9433020C9433020C9433020C9433023C
:100070000C9433020C9433020C9433020C9433022C
:100080000C9433020C9433020C9433020C9433021C
:100090000C9433020C9433020C9433020C9433020C
:1000A0000C9433020C9433020C9433022400250088
:1000B00026002100220023001E001F0020002D002A
:1000C00027002E00010001000100010001000100D5
:1000D0000100010001000100010001000100010018
:1000E0000100010001000100010001000100010008
:1000F00001000100010001000100010001000100F8
:1001000001000100010001000100010001000100E7
:1001100001000100010001000100010001000100D7
:1001200001000100010001000100010001000100C7
:1001300001000100010001000100010001000100B7
:1001400001000100010001000100010001000100A7
:100150000100010001000100010001000100010097
:100160000100010001000100010001000100010087
:100170000100010001000100010001000100010077
:100180000100010001000100010001000100010067
:100190000100010001000100010001000100010057
:1001A0000100010001000100010001000100010047
:1001B0000100010001000100010001000100010037
:1001C0000100010001000100010001000100010027
:1001D0000100010001000100010001000100010017
:1001E0000100010001000100010001000100010007
:1001F00001000100010001000100010001000100F7
:1002000001000100010001000100010001000100E6
:1002100001000100010001000100010001000100D6
:1002200001000100010001000100010012036B0048
:100230006500790062006F006100720064000000D8
:10024000160371006D006B006200750069006C00A0
:1002500064006500720000000403090409026D00D7
:10026000040100A0FA0904000001030101000921B2
:10027000110100012240000705810308000A09045A
:1002800001000103010200092111010001224D00BA
:100290000705820308000A090402000103000000A8
:1002A0000921110100012236000705830308000A15
:1002B00009040300010300000009211101000122CB
:1002C000390007058403200001120110010000001D
:1002D00008EDFE606001000102000105010906A1B0
:1002E00001050719E029E715002501950875018129
:1002F00002050819012905950575019102950175F9
:100300000391010507190029F71500250195F875D6
:10031000018102C005010980A101850216010026A4
:1003200003001A81002A8300751095018100C00521
:100330000C0901A1018503160100269C021A010087
:100340002A9C02751095018100C005010902A101D6
:100350000901A100050919012905150025019505C7
:10036000750181029501750381010501093009318B
:100370001581257F95027508810609381581257F2D
:10038000950175088106050C0A38021581257F95AF
:100390000175088106C0C005010906A101050719FC
:1003A000E029E71500250195087501810295017581
:1003B0000881010508190129059505750191029526
:1003C00001750391010507190029FF150026FF009B
:1003D000950675088100C00011241FBECFEFDAE03A
:1003E000DEBFCDBF04B603FE27C080910602909108
:1003F0000702A0910802B09109028730904BA740F4
:10040000B04BD1F41092060210920702109208022B
:100410001092090214BE84B7877F84BF0FB6F89488
:10042000A8958091600088618093600010926000C0
:100430000FBEE0E0F8E3099511E0A0E0B1E0E4EDE3
:10044000FFE302C005900D92AE32B107D9F722E06A
:10045000AEE2B1E001C01D92A630B207E1F70E9402
:1004600022190C94E81F0C94000090E080E008959D
:100470000895089581E00895089581E008950C9409
:100480003A020E94C10B2FEF84E39CE02150804090
:100490009040E1F700C000000C94D413FF920F933A
:1004A0001F93CF93DF938C01FC01C081D181809198
:1004B000560181113FC082818823B9F1CE010E948B
:1004C0002811F82E682FCE010E94CE10BE018F2D6C
:1004D0000E949503EC01B8010E943F02882309F4B1
:1004E0004AC0B801CE010E94A505882309F443C083
:1004F000C531F0E7DF0718F5C23080E7D80708F00C
:100500004BC0C115E0E7DE0789F1C130D047D1F11A
:1005100081E08093300180933101C801DF91CF9158
:100520001F910F91FF900C943D02CE010E94FD108F
:10053000F82ECCCFCE010E942811BE01C9CFCC33FA
:1005400080E7D80709F4ACC0CD33D04709F7F801EC
:100550008281882309F4CBC0109231010E94791363
:1005600090932F0180932E0180E2A7C0F801828131
:1005700081110E94410280E0DF91CF911F910F9184
:10058000FF900895F80182818823A9F38091C60124
:1005900081608093C601EFCFF8018281882309F43E
:1005A000BCCF0E94D912811102C00E94BF120E94CA
:1005B000F61290E09093F8018093F701FE01E3506A
:1005C000F0478091F7018160E231F105C8F4E5510F
:1005D000FD4F0C94981FFD0209030D031103150331
:1005E00019031D032103250329032D0331033503BB
:1005F00039033D034103450349038091F7018260BC
:100600008093F7018091F7010E94FA120E94C10BBA
:10061000B2CF8091F7018460F3CF8091F7018860B9
:10062000EFCF8091F7018061EBCF8091F70180627D
:10063000E7CF8091F7018064E3CF8091F701806874
:10064000DFCF8091F7018460EACF8091F7018E7F40
:10065000D7CF8091F7018D7FD3CF8091F7018B7F2A
:10066000CFCF8091F701877FCBCF8091F7018F7E2D
:10067000C7CF8091F7018F7DC3CF8091F7018F7B2A
:10068000BFCF8091F7018F77BBCF8091F7018B7F30
:10069000EACF9091F701892F97FB87F98058B0CF67
:1006A000F8018281882361F0109230010E94791351
:1006B00090932F0180932E0182E00E944B095BCF23
:1006C0008091300181110FC080912E0190912F01F6
:1006D0000E948513883C910530F486E20E94200830
:1006E00086E20E94FC0882E00E94520944CF809179
:1006F000310181110FC080912E0190912F010E9434
:100700008513883C910530F487E20E94200887E237
:100710000E94FC0880E2E8CF0C94F4050C94F605E6
:100720000C943C020C9490030895972F70E023E002
:10073000929F600D711D1124FB019CE0899FE00DCB
:10074000F11D1124EE0FFF1FE455FF4F8591949189
:100750000895FC01EE0FFF1FE45DFD4F859194911C
:1007600008950E9495030E942405811520E49207B4
:1007700008F08DC0811540E3940708F0E8C0803E82
:10078000910508F071C0803C910508F0CCC0883A12
:10079000910580F4853A910508F0CAC08130910531
:1007A00009F46EC020F08430910508F069C090E033
:1007B00080E008958D3B9105D0F7883A910509F4C2
:1007C00004C1893A910509F403C18A3A910509F4F3
:1007D00002C18B3A910509F401C18C3A910509F4E3
:1007E00000C18B3B910509F4FFC08C3B910509F4D6
:1007F000FEC08D3A910509F4FDC0803B910509F4D6
:10080000FCC08E3A910509F4FBC08F3A910509F4BA
:10081000FAC0813B910509F4F9C0823B910509F4C6
:10082000F8C0833B910509F4F7C0843B910509F4B6
:10083000F6C0853B910509F4F5C0863B910509F4A6
:10084000F4C0873B910509F4F3C0883B910509F496
:10085000F2C0893B910509F4F1C08A3B910509F486
:10086000F0C080E094E408958F3F910509F048F4CA
:10087000803F910508F067C0883E910508F097CF4A
:100880000895811520E2920708F05FC00895811550
:1008900043E5940760F5811522E5920708F062C0F0
:1008A000811541E5940708F058C0811520E59207AD
:1008B00008F450C09C0154E0369527955A95E1F70D
:1008C000922F9370482F437021E030E002C0220F36
:1008D000331F4A95E2F73C68392B869586958370DD
:1008E00040E2849FC0011124822B932B089581152F
:1008F00045E5940750F4811524E5920708F446C0B5
:10090000982F8827846F906A0895811546E594078B
:1009100008F450C09C0130569F702115304108F0FA
:1009200046CF90620895805C91090E94A9030895C2
:10093000853A910509F443C0863A910509F042C011
:1009400082E890E40895906508959F70EECF99270E
:10095000906C08959F70906A0895982F8827816FF2
:10096000906A0895AC014370552721E030E002C041
:10097000220F331F4A95E2F78695869540E2849FC1
:10098000C0011124822B932B9C680895AC01437005
:10099000552721E030E002C0220F331F4A95E2F7CD
:1009A0008695869540E2849FC0011124822B932B6B
:1009B0009A680895982F882788279F71B2CF81E879
:1009C00090E4089583E890E4089582EE94E4089515
:1009D00089EE94E408958AEE94E4089585EB94E416
:1009E000089586EB94E4089583EB94E4089584EBF2
:1009F00094E4089587EB94E408958CEC94E40895CE
:100A00008DEC94E4089583E895E408958AE895E4EC
:100A1000089582E995E4089584E995E4089581E2D2
:100A200096E4089583E296E4089584E296E40895B6
:100A300085E296E4089586E296E4089587E296E4D6
:100A400008958AE296E41CCF8238910549F1B0F40A
:100A50008133910509F45CC048F48932910509F4A9
:100A600052C08A32910509F458C008958533910522
:100A700009F444C08933910599F00895833E9105A6
:100A800031F138F4803E910591F0823E9105B1F04C
:100A90000895863E910511F1873E910541F1089533
:100AA0002091F7012370C9F080EE90E00895209125
:100AB000F70120FF12C089E390E008952091F7012B
:100AC00022FF0BC024FF2EC090E080E0089520910B
:100AD000F70122FD2AC024FDF7CF08952091F701E8
:100AE00023FFFBCF24FDF0CF87EE90E00895209107
:100AF000F70123FFF0CF86EE90E008952091F701F3
:100B000025FD16C008952091F70125FD14C0089514
:100B10002091F70126FD12C008952091F70126FDCE
:100B200010C0089583EE90E0089582EE90E008955D
:100B300089E290E0089585E390E008958AE290E0EC
:100B4000089581E390E0C9CF08950F931F93CF9349
:100B50008C01FB018281811106C0C1E08C2FCF91F5
:100B60001F910F910895C0913F01C11125C005311A
:100B7000104799F70E94A40581E080933F010E94ED
:100B8000791390933E0180933D01109232011092AF
:100B900034011092330110923601109235011092F7
:100BA00038011092370110923A01109239011092D7
:100BB0003C0110923B01D2CF80913D0190913E01CA
:100BC0000E948513883C910540F680913201E82F00
:100BD000F0E0EE0FFF1FED5CFE4F118300838F5F8F
:100BE00080933201C0E0BACF0C9438020C943902E1
:100BF000CF93DF9385B7806885BF85B7806885BF51
:100C0000A6E1B1E04AE151E0C1E0D0E08D91E82FEA
:100C1000E295EF70F0E061A18F709E0101C0220F9C
:100C20008A95EAF7922F9095962391A382A1822B21
:100C300082A34A175B0751F7A3E1B1E046E151E017
:100C4000C1E0D0E08D91E82FE295EF70F0E061A176
:100C50008F709E0101C0220F8A95EAF7922F90951E
:100C6000962391A382A1822B82A34A175B0751F797
:100C700010924401109240011092450110924101DE
:100C800010924601109242011092470110924301C6
:100C9000DF91CF910C948C036F927F928F929F92F1
:100CA000AF92BF92CF92DF92EF92FF920F931F937A
:100CB000CF93DF93C0E4D1E006E111E09AE1E92EA1
:100CC00091E0F92ECC24C394D12CBB24B394A880FA
:100CD0001882D8018D918D01E82FE295EF70F0E038
:100CE00091A18F70A60101C0440F8A95EAF7892F60
:100CF000842B81A382A1842E8094882182A3B0EAD0
:100D0000BA95F1F783E1682E81E0782E90E080E0DB
:100D1000D3013D913D01632F62956F7070E0DB015F
:100D200090962C9198803F70B60101C0660F3A955D
:100D3000EAF7622320E031F42C2D082E01C0220FA7
:100D40000A94EAF72929288301968330910501F74F
:100D500081A1882181A382A1482B42A38881A81662
:100D600041F0B09248010E94791390934A01809318
:100D700049012196E016F10609F0A9CF80914801BA
:100D80008823D1F08091490190914A010E948513F6
:100D9000069790F080914001809344018091410139
:100DA00080934501809142018093460180914301E7
:100DB00080934701109248010E948E0381E0DF91E9
:100DC000CF911F910F91FF90EF90DF90CF90BF9048
:100DD000AF909F908F907F906F900895E82FF0E0F4
:100DE000EC5BFE4F808108950895909350018093AD
:100DF0004F010895E0914F01F0915001309721F09B
:100E00000190F081E02D099480E00895E0914F0178
:100E1000F0915001309721F00280F381E02D099488
:100E20000895E0914F01F0915001309721F0048036
:100E3000F581E02D0994089520914D0130914E01E6
:100E40002817390771F090934E0180934D01E0917E
:100E50004F01F0915001309721F00680F781E02D8D
:100E60000994089520914B0130914C0128173907BE
:100E700071F090934C0180934B01E0914F01F09100
:100E80005001309721F00084F185E02D09940895F8
:100E900008950C9448070E9470130E94F8050C9462
:100EA0003914BF92CF92DF92EF92FF920F931F936C
:100EB000CF93DF93CDB7DEB72A970FB6F894DEBF96
:100EC0000FBECDBF0E944C0682E5C82E81E0D82E11
:100ED00010E000E0B02E802F0E94EE06E82EF60112
:100EE000F1906F01F81609F45AC08091C60181FD96
:100EF0000E94F40690E080E0FE242F2D30E0482F81
:100F0000B901082E02C0759567950A94E2F760FF53
:100F100041C08E83BF8281E090E06C0102C0CC0CA6
:100F2000DD1C4A95E2F72E2D30E02C213D21232BAC
:100F300009F480E088870E9479138160782F9A876E
:100F400089874E815F8168858A850E94F607F8014E
:100F5000EE5AFE4F80818C2580830E94BC160E9431
:100F6000FA0690915101891789F10E94FA0680933F
:100F700051012A960FB6F894DEBF0FBECDBFDF91A8
:100F8000CF911F910F91FF90EF90DF90CF90BF9086
:100F90000C94920301968330910509F0B0CF0F5F56
:100FA0001F4F0430110509F095CF8FEF89838A8395
:100FB0001B820E9479138160782F9D838C834981E5
:100FC0005A816B818D810E94F607C7CF2A960FB692
:100FD000F894DEBF0FBECDBFDF91CF911F910F916F
:100FE000FF90EF90DF90CF90BF900895CF93DF9365
:100FF000CDB7DEB72B970FB6F894DEBF0FBECDBFCF
:101000004F83588769877A878B871E821D8285E088
:10101000FE013796DE01119601900D928A95E1F757
:1010200049815A816B817C818D819E812B960FB67F
:10103000F894DEBF0FBECDBFDF91CF910C94730E3D
:10104000882309F4D8C0823871F40E94FA0681FD21
:10105000D2C089E30E94C8110E94901289E30E94C5
:1010600005120C949012833859F40E94FA0680FD00
:10107000C2C083E50E94C8110E94901283E5EFCFA1
:10108000843859F40E94FA0682FDB5C087E40E94B4
:10109000C8110E94901287E4E2CF9CEF980F913A1A
:1010A00018F40E94C811DDCF90E2980F983050F4E8
:1010B000877091E001C0990F8A95EAF7892F0E9405
:1010C0004712CFCF9BE5980F933070F4853A31F0FB
:1010D000863A39F083E890E00C941C0781E890E0B0
:1010E000FBCF82E890E0F8CF98E5980F953108F0B3
:1010F00082C0883A09F440C0893A09F440C08A3A6B
:1011000009F440C08B3A09F440C08C3A09F440C05D
:101110008B3B09F440C08C3B09F440C08D3A09F484
:1011200040C0803B09F440C08E3A09F440C08F3A79
:1011300009F440C0813B09F440C0823B09F440C03F
:10114000833B09F440C0843B09F440C0853B09F46B
:1011500040C0863B09F440C0873B09F440C0883B4F
:1011600009F440C0893B09F440C08A3B09F440C0FF
:1011700090E080E00C94320782EE90E0FBCF89EEA5
:1011800090E0F8CF8AEE90E0F5CF85EB90E0F2CFDB
:1011900086EB90E0EFCF83EB90E0ECCF84EB90E038
:1011A000E9CF87EB90E0E6CF8CEC90E0E3CF8DECDD
:1011B00090E0E0CF83E891E0DDCF8AE891E0DACFFC
:1011C00082E991E0D7CF84E991E0D4CF81E292E047
:1011D000D1CF83E292E0CECF84E292E0CBCF85E222
:1011E00092E0C8CF86E292E0C5CF87E292E0C2CF1C
:1011F0008AE292E0BFCF0895882309F44BC0823879
:1012000071F40E94FA0681FF45C089E30E94C8116B
:101210000E94901289E30E9405120C949012833868
:1012200059F40E94FA0680FF35C083E50E94C81178
:101230000E94901283E5EFCF843859F40E94FA0699
:1012400082FF28C087E40E94C8110E94901287E4A0
:10125000E2CF9CEF980F913AF0F290E2980F98301D
:1012600050F4877091E001C0990F8A95EAF7892FB1
:101270000E944D12D2CF9BE5980F933020F490E05E
:1012800080E00C941C07885A853120F490E080E0BF
:101290000C9432070895882321F00E9447120C9481
:1012A00090120895882321F00E944D120C94901200
:1012B00008958F929F92AF92BF92DF92EF92FF922A
:1012C0000F931F93CF93DF937C01D62FC72FFC0181
:1012D000058102950F70128111110E9466120E9401
:1012E000C111D82E882371F0112321F180E28D0FD6
:1012F000883000F182E00E94AB110E94C11191E0A0
:10130000D82ED926EC2FE295EF70F0E0E657F64F95
:101310000C94981F9C099C09EC09EC092E0A4A0AB6
:10132000C909C909550AC909ED0AED0A600BC909BD
:10133000C909690BD12CE6CF0C2F0F70C07F11F0BB
:101340000295007F1123A9F0002359F080E28D0F50
:10135000883010F0D11109C0802F0E9447120E94DE
:1013600090128D2F0E94200814C0802F0E945812C6
:10137000F6CF8D2F0E94FC08002359F080E28D0FDC
:10138000883010F0D11124C0802F0E944D120E948D
:101390009012DD2009F4A4C10E949E1180FDA0C11D
:1013A000F70112820E9498110E941210C7010E9438
:1013B0007C0B0E949811DF91CF911F910F91FF90AC
:1013C000EF90DF90BF90AF909F908F900C94331070
:1013D000802F0E945E12DBCFFC2FFF70BF2EC07FDC
:1013E000C03219F0B29480EFB822DD2369F0D13019
:1013F00029F1112369F1002359F0F701858180FF5C
:10140000B0CF8F70858304C0112361F0011104C037
:101410008B2D0E944B09BDCF8B2D0130D1F70E943F
:101420007A12B7CF011106C00E947D128B2D0E9447
:101430005209AFCF013009F4ACCFF6CF112321F020
:10144000063008F0A6CFE4CF053008F0A2CFEECFEB
:10145000002361F38D2F0E94FC089BCF8C2F869573
:101460008695837069F0813009F093CF8D2F9C2F82
:101470009370111102C090E080E00E94320789CF82
:101480008D2F9C2F9370111102C090E080E00E947C
:101490001C077FCF8D2F112329F00E94C5150E94B4
:1014A000B11677CF0E942D16FACF8C2F837009F0DA
:1014B00047C011116ECF2D2F229526952770220F30
:1014C000220F6D2F6F70862E912CB12CA12C022E25
:1014D00004C0880C991CAA1CBB1C0A94D2F760E0BB
:1014E00070E0CB01D4FF0FC06FE070E080E090E0CF
:1014F00004C0660F771F881F991F2A95D2F7609541
:10150000709580959095C695C695C370C23051F080
:1015100080F4682979298A299B29C13071F00E94B9
:10152000BB0F37CF682979298A299B290E94D70FB9
:1015300030CF0E94BB0FC501B4010E949F0F29CF7D
:101540008695112311F08C2F8170882309F421CF07
:101550002D2F229526952770220F220F6D2F6F7049
:10156000862E912CB12CA12C022E04C0880C991C23
:10157000AA1CBB1C0A94D2F760E070E0CB01D4FF38
:101580000FC06FE070E080E090E004C0660F771F4E
:10159000881F991F2A95D2F7609570958095909530
:1015A000C695C695C370C23051F080F46829792978
:1015B0008A299B29C13071F00E949510EACE6829D2
:1015C00079298A299B290E94B110E3CE0E949510A7
:1015D000C501B4010E947910DCCEE0E2ED0FE531E7
:1015E00008F062C0F0E0E950F54F0C94981F0C0B26
:1015F0000C0B0C0B0C0B0C0B0C0B0C0B0C0B0C0B33
:101600000C0B0C0B0C0B0C0B0C0B0C0B0C0B190B15
:10161000270B2E0B350B3F0BDF708C2F8F71112397
:1016200021F00E9412108D2FF4CE0E9433108D2FC6
:10163000FECE112341F0053008F0ABCE8C2F8F7118
:101640000E945810A6CE063008F0A3CEF7CF8C2FFC
:101650008F71112339F00E9412109BCE8C2F8F7145
:101660001123C9F30E94331094CE112329F08C2F3B
:101670008F710E94FD0F8DCE0E94F30F8ACE112331
:1016800049F0CF718C2F0E94121063E08C2F0E94C2
:10169000A2117FCE81E00E94AB11023008F479CE16
:1016A00082E00E94AB1175CE112329F0011159CEB1
:1016B0008C2F8F71D0CF0111CDCE8C2F8F71D2CFC7
:1016C0004C2F4F706D2FC7010E9435020E941C0FD6
:1016D00060CE4C2F4F706D2FC7010E94940359CEDE
:1016E000DF91CF911F910F91FF90EF90DF90BF900E
:1016F000AF909F908F9008950F931F93CF93DF9398
:10170000EC01988189812B813C81232B39F08F3F1B
:1017100019F481E09F3F19F080E001C081E080FD75
:1017200017C0CE010E944E02882391F06881798112
:101730008A810E9474118C010E94CD100E94940F26
:10174000B801CE01DF91CF911F910F910C945909EF
:10175000DF91CF911F910F9108950E9466120E9410
:1017600077120E9439120E9490120E945E170E9406
:10177000B11690E080E00E941C0790E080E00C949D
:1017800032070E9455120C94AD0B0E946A11E92F8A
:10179000E295EF70E250EE30E0F4F0E0EE52F44FFC
:1017A0000C94981FE00BE00BE90BE90BEB0BE90B3A
:1017B000E90BE90BE00BE00BF00BE90BE90BF00B8D
:1017C000803F19F020F4803E20F481E00895843FAA
:1017D000E1F380E00895803EC0F3813FD1F7F5CF7B
:1017E00093FB882780F90895CF93DF9300D000D032
:1017F0001F92CDB7DEB70F900F900F900F900F9004
:10180000DF91CF910895CF93DF9300D000D000D027
:10181000CDB7DEB726960FB6F894DEBF0FBECDBFAC
:10182000DF91CF9108951F93CF93DF93C09157011C
:1018300016E0809158018C1304C0DF91CF911F9165
:101840000895D0E01C9FF0011D9FF00D1124E75A70
:10185000FE4F4081518162817381848195810E9414
:10186000030C2196C770E5CF4091890150918A0100
:1018700060918B0170918C0180918D0190918E010E
:101880000C94030C1F93CF93DF9380918E01807F84
:10189000D1F480918B018823B1F080915701D091D0
:1018A0005801B0918901C0918A0140918C015091F9
:1018B0008D01A1E0BF3F09F0A0E0BA0160957095ED
:1018C00016E0D81304C0DF91CF911F91089521E055
:1018D0004115510521F02A2FCF3F09F020E090E07B
:1018E00020FD38C0189FF001199FF00D1124E75A10
:1018F000FE4F21812C132EC020812B132BC022815F
:10190000211128C0238134812417350700F1241BBD
:10191000350B283C3105F0F420918E012F702061A9
:1019200020938E0126E0289FF001299FF00D1124BD
:10193000E25AFE4F80818F708061808389E891E058
:101940000E947C0BDF91CF911F910C94130C260FFA
:10195000371FDFCF01968770B4CFAF92BF92CF927F
:10196000DF92EF92FF920F931F93CF93DF93CDB748
:10197000DEB761970FB6F894DEBF0FBECDBF8C0106
:1019800085E0F801DE011D9601900D928A95E1F740
:10199000D8014C9111965C9111971296EC90309170
:1019A000890160918A0180918C0190918D0121E0E3
:1019B000009731F06F3F19F421E03F3F09F020E03C
:1019C000B22FB170BB2E20FD80C1F801C380D4803E
:1019D000A0908B01AA2009F427C1C816D906D0F11E
:1019E000D601A81BB90BCD01FF24F394883C9105C7
:1019F00008F0F12C80918E01982F907FFF2009F440
:101A0000CAC0911187C0FE2C651329C0341327C0AA
:101A1000E11025C08F70806180938E010E94340C8C
:101A200089E891E00E947C0B80918E01F80185830A
:101A30008F2D61960FB6F894DEBF0FBECDBFDF913C
:101A4000CF911F910F91FF90EF90DF90CF90BF90BB
:101A5000AF900895809590958C0D9D1DC5CF81E028
:101A6000CD2831F05F3F19F481E04F3F09F080E06D
:101A700080FD24C081E08E25F82FF170DF2E80FFDD
:101A80003FC0809157012091580136E0821318C061
:101A90004D875E878D859E850E946A11292F22952C
:101AA0002F70223008F1243030F59F7009F1D801F1
:101AB00015969C91907FE1F4FB2CBACF80E0DCCFAF
:101AC00090E0389FF001399FF00D1124E75AFE4F46
:101AD0006181561306C06081461303C062816E1196
:101AE0000FC001968770D2CF9F7011F0882321F329
:101AF000805E883008F3C8010E947C0BBD2CDCCFCF
:101B0000EE2009F495CF80918E01816080938E0143
:101B1000F12C8ECF651312C0341310C0E1100EC02B
:101B2000F8018583C8010E947C0B86E0F801A9E8D2
:101B3000B1E001900D928A95E1F741C04D875E8733
:101B40008D859E850E94C50B882309F4C8C0EE20B0
:101B500009F4C5C080918E01803270F02091890116
:101B600030918A0138872F831986DB86CA868C8755
:101B7000CE0107960E947C0B86E0F801A9E8B1E04F
:101B800001900D928A95E1F70E94420C0E94340C5C
:101B9000FF24F3944DCF911115C07C2DD98AC88AAA
:101BA0006E2D89890E94F40B89E891E00E947C0BDC
:101BB00086E0E9E8F1E0DF011D928A95E9F70E94ED
:101BC000340C36CF651312C0341310C0E1100EC0B0
:101BD000F8018583C8010E947C0BE9E8F1E086E00A
:101BE000DF011D928A95E9F7FA2C22CF4D875E8797
:101BF0008D859E850E94C50B882309F470C0EE2058
:101C000009F46DC080918E01803208F4B5CF209127
:101C1000890130918A013A8329831B82DD82CC823B
:101C20008E83CE010196A6CFC816D90638F1F601EB
:101C3000E81BF90BCF01F12C883C910508F03DC061
:101C4000FE2CEE2009F44BC0651326C0341324C0CB
:101C500080918E0180FD17C0982F907FA1F0D80150
:101C600015968C931597903F09F45CCF982F907F31
:101C7000905F8F70892B15968C9354CF809590959B
:101C80008C0D9D1DD8CF86E0F801A9E8B1E0019048
:101C90000D928A95E1F7CCCE4D875E878D859E8526
:101CA0000E94C50B811168CF80918E018160809365
:101CB0008E01C8010E947C0BBBCE7C2DD98AC88ABC
:101CC0006E2D89890E94F40B73CFEE2041F04D8771
:101CD0005E878D859E850E94C50B81114DCFC80101
:101CE0000E947C0B55CF1F93CF93DF93CDB7DEB708
:101CF0002C970FB6F894DEBF0FBECDBF4F83588729
:101D000069877A878B879C87CE0107960E94AD0CE6
:101D1000882309F442C09F8188852A853B85232B2F
:101D200039F08F3F19F481E09F3F19F080E001C046
:101D300081E080FD08C04F81588569857A858B8553
:101D40009C850E94030C16E08091570190915801E8
:101D5000891709F467C0819FC0011124875A9E4FDB
:101D60000E94AD0C882309F45DC0E09157011E9FCD
:101D7000F0011124E75AFE4F408151816281738145
:101D8000848195810E94030C8091570190E0019617
:101D90008770992780935701D7CF86E0FE01379649
:101DA000DE01119601900D928A95E1F79F81888559
:101DB0002A853B85232B39F08F3F19F481E09F3F23
:101DC00019F080E001C081E080FDBDCF2091580175
:101DD00030E0C90101968770992740915701481753
:101DE000190699F096E0929FD001939FB00D1124AF
:101DF000A75ABE4FFE01319601900D929A95E1F7D8
:101E0000809358010E94130C9ECF0E94C10B109228
:101E100058011092570186E0E9E8F1E0DF011D92D8
:101E20008A95E9F72C960FB6F894DEBF0FBECDBFAA
:101E3000DF91CF911F910895EF92FF920F931F931F
:101E4000CF93DF938C01892B81F0F12CEE24E39466
:101E5000E8012196F8018491843770F4843008F009
:101E60005FC08130B1F08230A1F1DF91CF911F913D
:101E70000F91FF90EF900895853709F44CC008F456
:101E80003DC09CE7980F903780F78F770E94FC0841
:101E900049C00E5F1F4FFE01849190E2980F983069
:101EA00060F48770FE2D01C0FF0F8A95EAF78F2F2F
:101EB0000E9469120E94901202C00E9420088F2D79
:101EC000815030F2EFE9FFE03197F1F700C00000F8
:101ED000F7CF0E5F1F4FFE01849190E2980F98306C
:101EE00050F48770FE2D01C0FF0F8A95EAF78F2FFF
:101EF0000E946F12DFCF0E94FC08E1CF0E5F1F4FE0
:101F0000FE01C491C150D8F28FE99FE00197F1F72B
:101F100000C00000F7CF0E5F1F4FFE01F490CFCF3F
:101F20000E9420088E01CBCF089560939D0170938D
:101F30009E0180939F019093A0010C94AD0B0F9391
:101F40001F9300919D0110919E0120919F0130915E
:101F5000A001DC01CB01802B912BA22BB32B809312
:101F60009D0190939E01A0939F01B093A0011F91AA
:101F70000F910C94AD0B0F931F9300919D01109145
:101F80009E0120919F013091A001DC01CB018023B3
:101F90009123A223B32380939D0190939E01A0934C
:101FA0009F01B093A0011F910F910C94AD0B0F9363
:101FB0001F9300919D0110919E0120919F013091EE
:101FC000A001DC01CB0180279127A227B3278093B2
:101FD0009D0190939E01A0939F01B093A0011F913A
:101FE0000F910C94AD0B1092990110929A011092DE
:101FF0009B0110929C010C94AD0B41E050E060E01D
:1020000070E004C0440F551F661F771F8A95D2F7F2
:102010004093990150939A0160939B0170939C01A6
:102020000C94AD0B41E050E060E070E004C0440F60
:10203000551F661F771F8A95D2F78091990190915D
:102040009A01A0919B01B0919C01842B952BA62B0A
:10205000B72B8093990190939A01A0939B01B09321
:102060009C010C94AD0B41E050E060E070E004C0D6
:10207000440F551F661F771F8A95D2F740955095DC
:10208000609570958091990190919A01A0919B0122
:10209000B0919C0184239523A623B72380939901B3
:1020A00090939A01A0939B01B0939C010C94AD0B6B
:1020B00041E050E060E070E004C0440F551F661F2F
:1020C000771F8A95D2F78091990190919A01A091FA
:1020D0009B01B0919C0184279527A627B727809361
:1020E000990190939A01A0939B01B0939C010C9449
:1020F000AD0B0F931F930091990110919A012091BC
:102100009B0130919C01DC01CB01802B912BA22BF8
:10211000B32B8093990190939A01A0939B01B09364
:102120009C011F910F910C94AD0B0F931F93009185
:10213000990110919A0120919B0130919C01DC0141
:10214000CB0180239123A223B32380939901909301
:102150009A01A0939B01B0939C011F910F910C9445
:10216000AD0B0F931F930091990110919A0120914B
:102170009B0130919C01DC01CB0180279127A22794
:10218000B3278093990190939A01A0939B01B093F8
:102190009C011F910F910C94AD0B0895292F220FD4
:1021A000920F890F982F977071E001C0770F9A9561
:1021B000EAF786958695869525E0829FC0011124D1
:1021C00050E040E0A62FB0E0FC01E40FF51FE1571E
:1021D000FE4F60819D01042E02C0369527950A941A
:1021E000E2F72170219526272723262720834F5F9A
:1021F0005F4F4530510541F70895292F220F920F67
:10220000890F982F977086958695869545E0849FCF
:102210009001112470E060E080E0F901E60FF71F03
:10222000E157FE4F408150E0092E02C05695479578
:102230000A94E2F741705527062E01C0440F0A9414
:10224000EAF7842B6F5F7F4F6530710531F7089592
:10225000BF92CF92DF92EF92FF920F931F93CF9393
:10226000DF938C01C0909901D0909A01E0909B017E
:10227000F0909C0180919D0190919E01A0919F0101
:10228000B091A001C82AD92AEA2AFB2ACFE1D0E0DE
:10229000BC2ED701C6010C2E04C0B695A795979504
:1022A00087950A94D2F780FD0EC0219788F7B12C4C
:1022B0008B2DDF91CF911F910F91FF90EF90DF90C9
:1022C000CF90BF900895B8018C2F0E94B103019761
:1022D00061F3EECFCF93DF93EC010E942811BE0192
:1022E000DF91CF910C94B1031F93CF93DF93EB0158
:1022F00090915601992331F0CB01DF91CF911F913D
:102300000C946A11882379F0CB010E942811182FB0
:10231000682FCE010E94CE10BE01812FDF91CF9198
:102320001F910C94B103CB010E94FD10182FF4CF24
:102330008091A10185958595859508958091A1014C
:102340008770089598E0899F90011124622B609313
:10235000A1010C9412109091A10180958923809382
:10236000A101282F277061F4282F082E000C330BB1
:102370009217130629F08595859585950C94331051
:1023800008959091A101977081E009F480E008958B
:10239000909112019923E1F09091F70197FF18C0F5
:1023A000E82FE695E695E695EF3139F120910001A9
:1023B00030910101E20FF32FF11D877021E030E031
:1023C00001C0220F8A95EAF78181822B81830895CB
:1023D0002091000130910101F90132969FEF40E018
:1023E0005191851751F09F3F19F4511101C0942F5D
:1023F0004F5F4E31A9F79F3F09F40895290F311D12
:1024000097FD3A95F90182830895909112019923DD
:10241000F1F09091F70197FF1AC0E82FE695E69545
:10242000E695EF3129F12091000130910101E20F91
:10243000F32FF11D282F277081E090E001C0880F55
:102440002A95EAF7809591818923818308952091C7
:10245000000130910101F9013296205E3F4F9191C8
:10246000891303C0DF0111971C92E217F307B9F734
:10247000089581E090E0E0910001F0910101E80F02
:10248000F91F1082019680329105A9F70895909165
:10249000C501892B8093C5010895982F909580914F
:1024A000C50189238093C50108951092C50108953F
:1024B0009091C401892B8093C4010895982F909521
:1024C0008091C40189238093C40108951092C401AE
:1024D00008959091C301892B8093C3010895982F8B
:1024E00090958091C30189238093C3010895109230
:1024F000C30108958093A20108951092A201089546
:102500002091000130910101F9013196205E3F4F89
:1025100080E0919191118F5FE217F307D1F7089551
:10252000E0910001F09101018091C5018083E0916B
:102530000001F091010180819091C401892B808379
:10254000E0910001F091010180819091C301892BFC
:1025500080839091A201992361F0E0910001F091B4
:1025600001018081892B80830E9480128111109249
:10257000A20180910001909101010C9406076DEE7B
:102580007EEF90E080E00E94D21F60E082E090E069
:102590000E94C01F60E083E090E00E94C01F60E0E6
:1025A00084E090E00E94C01F60E085E090E00C9421
:1025B000C01F90E080E00E94BA1F21E08D3E9E4F38
:1025C00009F020E0822F089582E090E00C94B21F81
:1025D000682F82E090E00C94C01F83E090E00C94A0
:1025E000B21F682F83E090E00C94C01F84E090E05D
:1025F0000C94B21F682F84E090E00C94C01F80916F
:10260000FD01843039F11092C70188E190E020E4A7
:102610000FB6F894A895809360000FBE20936000D9
:1026200080E00E94920383B7817F846083BF83B779
:10263000816083BF7894889583B78E7F83BF0FB600
:10264000F894A89580916000886180936000109252
:1026500060000FBE089508950895CF930E942B1334
:102660000E944C060E942C13C0E08C2F0E94EE06A4
:10267000811105C0CF5FC430C1F7CF91089581E0CB
:10268000FCCF0E94C10B0E94FA060C9492031F9289
:102690000F920FB60F9211248F939F93AF93BF9316
:1026A0008091C701811113C08091F3019091F401D1
:1026B000A091F501B091F6014196A11DB11D809345
:1026C000F3019093F401A093F501B093F601BF914B
:1026D000AF919F918F910F900FBE0F901F90189503
:1026E00082E084BD93E095BD9AEF97BD80936E0024
:1026F00008952FB7F8948091F3019091F401A0917F
:10270000F501B091F6012FBF0895CF92DF92EF92BD
:10271000FF920F931F932FB7F8944091F3015091BC
:10272000F4016091F5017091F6012FBF6A017B0100
:10273000EE24FF248C0130E020E0C016D106E20632
:10274000F30650F0481B590BCA011F910F91FF90DF
:10275000EF90DF90CF90089541505109F3CF1F9231
:102760000F920FB60F9211248F939F93AF93BF9345
:102770008091F3019091F401A091F501B091F601DF
:102780000196A11DB11D8093F3019093F401A093D4
:10279000F501B093F601BF91AF919F918F910F908A
:1027A0000FBE0F901F9018950E94581BF8942FEFA2
:1027B00087EA91E6215080409040E1F700C0000098
:1027C00087E090EBDC018093060290930702A093D0
:1027D0000802B093090288E19CE00FB6F894A8952E
:1027E000809360000FBE90936000FFCFCF92DF9286
:1027F000EF92FF920F931F93CF93C0E0E82EF12C3E
:102800008C2F0E94EE0610E000E0C82ED12CC601ED
:10281000002E02C0959587950A94E2F780FD11C0BD
:102820000F5F1F4F0330110591F7CF5FC43041F7A1
:1028300080E0CF911F910F91FF90EF90DF90CF90AC
:102840000895602F7C2F80E00E949503E816F9061A
:1028500039F781E0EECFCF93C82F8CE20E94F613B8
:10286000882321F08C2FCF910C94F61380E0CF9128
:102870000895CF930E94D912811102C00E94BF1205
:10288000C5E608C00E944C068FE39CE90197F1F76A
:1028900000C00000C150B1F789E20E942B148111E1
:1028A000EFC08AE20E942B1481110E94BF1285E0C2
:1028B0000E942B1481110E94D4130E94E412809371
:1028C000C60187E00E942B14882371F08BE10E94DF
:1028D0002B14882309F4B1C09091C601892F8D7FF4
:1028E00091FF82608093C6018091C6010E94E81228
:1028F0000E94F61290E09093F8018093F70180EE29
:102900000E942B14882341F09091F701892F8E7F2C
:1029100090FF81608093F70189E30E942B14882344
:1029200041F09091F701892F8D7F91FF8260809314
:10293000F70182EE0E942B14882341F09091F70159
:10294000892F8B7F92FF84608093F70186EE0E942F
:102950002B14882341F09091F701892F877F93FFF3
:1029600088608093F70183EE0E942B14882341F046
:102970009091F701892F8F7E94FF80618093F701FA
:1029800085E30E942B14882341F09091F701892F51
:102990008F7D95FF80628093F70181E30E942B1465
:1029A000882341F09091F701892F8F7B96FF8064F7
:1029B0008093F70181E10E942B14882341F09091CC
:1029C000F701892F97FB87F980588093F701809151
:1029D000F7010E94FA1287E20E942B14C82F8EE1A1
:1029E0000E942B148111C2608FE10E942B1481116F
:1029F000C46080E20E942B148111C86081E20E94B1
:102A00002B148111C06182E20E942B148111C062DB
:102A100083E20E942B148111C06484E20E942B1473
:102A2000882341F1C0688C2F0E94F1126C2F70E056
:102A300090E080E0CF910C94950F8EE00E942B14D3
:102A4000882339F09091C601892F8B7F92FF846093
:102A500049CF80E10E942B149091C601882329F070
:102A6000892F877F93FF88603DCF892F8E7F90FFCE
:102A7000816038CFC111D7CF0E94ED12682FD7CF18
:102A8000CF9108958091CA0180FF12C06091050125
:102A900085E0689FB00111247595679575956795D8
:102AA00060387105A8F561157105A1F1862F0895AB
:102AB00081FF09C06091050185E0689FB001112484
:102AC00075956795EDCF82FF07C06091050185E0A0
:102AD000689FB0011124E4CF2091CB012223A9F0FB
:102AE000909104016091050185E0689FB001112477
:102AF0002917B0F6269FA001279F500D1124692F9A
:102B000070E0CA010E94841FCBCF65E070E0CECF99
:102B10008FE7089581E008958091CA0180FF0CC07D
:102B20006091030170E075956795759567956115DE
:102B3000710549F1862F089581FF06C06091030158
:102B400070E075956795F3CF6091030182FD0BC02E
:102B50009091CB019923A1F0609102018091030132
:102B6000961738F0682F70E06038710500F38FE732
:102B70000895899FC001112470E00E94841FF4CF42
:102B800061E070E0D7CF81E00895803F31F40E948A
:102B9000421581958093CE010895813F19F40E94DA
:102BA0004215F8CF823F31F40E94421581958093FF
:102BB000CD010895833F19F40E944215F8CF893F53
:102BC00029F40E948C158093CF0108958A3F21F447
:102BD0000E948C158195F7CF8B3F31F40E948C15A4
:102BE00081958093D00108958C3F19F40E948C1533
:102BF000F8CF843F31F48091CC0181608093CC0187
:102C00000895853F21F48091CC018260F7CF863F03
:102C100021F48091CC018460F1CF873F21F4809131
:102C2000CC018860EBCF883F21F48091CC0180619A
:102C3000E5CF8D3F31F48091CA0181608093CA0154
:102C400008958E3F21F48091CA018260F7CF8F3FB3
:102C5000B9F78091CA018460F1CF803FC1F48091BF
:102C6000CE0187FD1092CE018091CD0181110EC061
:102C70008091CE0181110AC08091CF01811106C0DF
:102C80008091D001811102C01092CB010895813F43
:102C900029F48091CE0118162CF3E6CF9091CD0146
:102CA000823F29F497FFE0CF1092CD01DDCF833F23
:102CB00019F41916CCF3D8CF893F39F48091CF019C
:102CC000181694F61092CF01CFCF8A3F29F4809145
:102CD000CF0187FFC9CFF6CF8B3F39F48091D00168
:102CE00087FFC2CF1092D001BFCF8C3F29F48091D3
:102CF000D0011816BCF3B8CF843F31F48091CC01D9
:102D00008E7F8093CC01B0CF853F21F48091CC01A0
:102D10008D7FF7CF863F21F48091CC018B7FF1CF5F
:102D2000873F21F48091CC01877FEBCF883F21F44E
:102D30008091CC018F7EE5CF8D3F31F48091CA0127
:102D40008E7F8093CA0190CF8E3F21F48091CA017B
:102D50008D7FF7CF8F3F09F087CF8091CA018B7F9E
:102D6000F0CF8CEC91E00E9411070E9479139093B0
:102D7000C9018093C80108951F93CF93DF93809179
:102D8000C8019091C9010E948513AC019091CB01BB
:102D90002091060130E0911106C0209107018AE0E0
:102DA000289F900111244217530780F08091CD0194
:102DB000C091CE011091CF01D091D00181110AC0F4
:102DC000C11178C0111176C0D11174C0DF91CF91BB
:102DD0001F9108959F3F19F09F5F9093CB011816A4
:102DE00024F40E9442158093CD018091CD0187FF8C
:102DF00005C00E94421581958093CD011C1624F4D4
:102E00000E9442158093CE018091CE0187FF05C0BC
:102E10000E94421581958093CE016091CD01662379
:102E200031F1C091CE01CC2311F1062E000C770BAD
:102E3000880B990B0E948B1E23E333E343E35FE38C
:102E40000E94EF1E0E94531E6093CD016C2FCC0F89
:102E5000770B880B990B0E948B1E23E333E343E32C
:102E60005FE30E94EF1E0E94531E6093CE01111675
:102E700024F40E948C158093CF018091CF0187FFAD
:102E800005C00E948C1581958093CF011D1624F4F6
:102E90000E948C158093D0018091D00187FF05C0DE
:102EA0000E948C1581958093D001DF91CF911F9165
:102EB0000C94B1169F3F09F08FCFA0CF85E0ECECCA
:102EC000F1E0DF011D928A95E9F71092CB01109293
:102ED000CA0108958091F1010895CF93DF9300D046
:102EE0001F92CDB7DEB79C018091FD01843019F5AA
:102EF00093E099833B832A839093E9008FEF90912D
:102F0000E800815095FD06C095ED9A95F1F7000017
:102F10008111F5CF8091E80085FF0DC050E040E0C1
:102F200063E070E0CE0101960E94C8198091E8002C
:102F30008E778093E8000F900F900F90DF91CF91E4
:102F40000895CF93DF9300D01F92CDB7DEB72091C5
:102F5000FD01243031F522E02983805891099B83BB
:102F60008A8383E08093E9008FEF9091E80081509D
:102F700095FD06C095ED9A95F1F700008111F5CF0A
:102F80008091E80085FF0DC050E040E063E070E014
:102F9000CE0101960E94C8198091E8008E77809337
:102FA000E8000F900F900F90DF91CF9108959C0152
:102FB0008091FD018430F9F482E08093E9009FEF75
:102FC0008091E800915085FD06C085ED8A95F1F766
:102FD00000009111F5CF8091E80085FF0CC050E012
:102FE00040E065E070E0C9010E94C8198091E800E6
:102FF0008E778093E8000895CF93DF93EC01809162
:10300000FD018430F1F4909112019923E9F090913F
:10301000F70197FF19C08093E9008FEF9091E800C6
:10302000815095FD06C095E19A95F1F70000811158
:10303000F5CF8091E80050E040E060E270E085FD6F
:103040001AC0DF91CF91089581E08093E9008FEF5E
:103050009091E800815095FD06C095ED9A95F1F7A5
:1030600000008111F5CF8091E80085FFEACF50E0A4
:1030700040E068E070E0CE010E94C8198091E8004D
:103080008E778093E80080E2FE01A1EDB1E001902F
:103090000D928A95E1F7D5CF8091FC01811109C08D
:1030A0000E94581B0E94B51B8091E20084608093AF
:1030B000E20008951092FC010895089508950C947B
:1030C000411342E061EC81E00E94D61A42E061ECDB
:1030D00082E00E94D61A42E061EC83E00E94D61A98
:1030E00042E261EC84E00C94D61A8091FF018330B7
:1030F00009F455C030F4813071F1823009F491C087
:1031000008958A3009F47DC08B3009F463C089309A
:1031100009F044C08091FE01813209F03FC08091E6
:10312000020290910302009711F00397B9F5809184
:10313000E800877F8093E8008091E80082FF2AC042
:103140008091F1008093F1018091E8008B7780936A
:10315000E8000C940A1B8091FE01813AF9F48091F9
:10316000E800877F8093E80080910202909103023B
:10317000892B61F460E281ED91E070E00E94171A02
:103180008091E8008B778093E800089560E090E0FC
:1031900080E0F3CF8091FD018111CECF0895809121
:1031A000FE01813AD9F78091020290910302892BA6
:1031B000A9F78091E800877F8093E8008091E8007C
:1031C00080FFFCCF809112018093F1008091E80094
:1031D0008E77BDCF8091FE01813201F7809102028E
:1031E00090910302892BD1F68091E800877F80932C
:1031F000E8000E940A1B80910002809312010C9447
:10320000C10B8091FE01813249F68091E800877FF1
:103210008093E8000E940A1B809101028093F201D2
:1032200008958091FE01813A09F0B8CF8091E800BD
:10323000877F8093E8008091E80080FFFCCF809139
:10324000F201C2CF84B7877F84BF0FB6F894A895E8
:1032500080916000886180936000109260000FBED2
:1032600080E880936100109261000E9449070E94EB
:10327000581B0E94B51B8091E20084608093E2009D
:1032800078940E94371E0E944B0788E091E00E94CC
:10329000F5068091FD01853019F00E945107F9CFA4
:1032A0000E94FF128091FB01882399F30E942D1345
:1032B000882379F30E94B219ECCF292F33272330CA
:1032C000310579F158F421303105F1F02230310522
:1032D00019F190E080E030E020E01AC021323105A1
:1032E00099F122323105A9F7643098F770E0FB01BB
:1032F000EE0FFF1FE25EFE4F20813181665E7E4F42
:10330000FB01808190E004C082E190E029EC32E092
:10331000FA013183208308958DE690E02CE532E0B8
:10332000F7CF99278130910561F028F0029789F64F
:10333000ECE2F2E002C0E8E5F2E0849190E09F0167
:10334000E7CFE0E4F2E0F9CF643008F0C2CFE62F37
:10335000F0E0EE0FFF1FEA5DFE4F2081318189E032
:1033600090E0D6CF80E189BD82E189BD09B400FE3D
:10337000FDCF8091D8008F7D8093D8008091E000B0
:1033800082608093E0008091E00081FDFCCF089591
:10339000AF92BF92CF92DF92FF920F931F93CF9382
:1033A000DF936C01EB018A010E94291BF82E811129
:1033B00023C00115110539F0F80180819181C81BE6
:1033C000D90BC80ED91EB12CA12C2097A9F0809141
:1033D000E80085FD22C08091E8008E778093E800A8
:1033E00001151105A1F0F80180819181A80EB91E87
:1033F000B182A08285E0F82E8F2DDF91CF911F91B1
:103400000F91FF90DF90CF90BF90AF9008950E94F2
:10341000291B8823D1F2F82EEFCFF60181916F019D
:103420008093F1002197FFEFAF1ABF0ACECFFC01C6
:10343000809104029091050286179707A0F061150C
:10344000710529F49091E8009E779093E80090E050
:103450006115710551F4911108C08091E80082FF57
:1034600035C080E00895BC01F2CF8091FD01882332
:10347000C9F18530C9F18091E80083FD31C08091A8
:10348000E80082FDEACF8091E80080FFE1CF209143
:10349000F3008091F200322F282F6115710519F089
:1034A0002830310558F091E02830310509F090E0DE
:1034B0002091E8002E772093E800CACF8191809375
:1034C000F100615071092F5F3F4FE7CF8091FD01FF
:1034D000882341F0853041F08091E80083FFBDCF23
:1034E00081E0089582E0089583E00895FC018091D1
:1034F00004029091050286179707A0F061157105E7
:1035000029F48091E8008E778093E80090E06115BF
:10351000710551F4911108C08091E80082FF36C016
:1035200080E00895BC01F2CF8091FD018823D1F1A4
:103530008530D1F18091E80083FD32C08091E800B0
:1035400082FDEACF8091E80080FFE1CF2091F30077
:103550008091F200322F282F6115710519F0283063
:10356000310558F091E02830310509F090E0809164
:10357000E8008E778093E800CACF84918093F100B1
:103580003196615071092F5F3F4FE6CF8091FD0169
:10359000882341F0853041F08091E80083FFBCCF63
:1035A00081E0089582E0089583E00895982F973090
:1035B00028F08F708093E90081E008959093E900EE
:1035C000242F762F50E0981731F07091EC00209165
:1035D000ED005091F00021FD02C09F5FE8CF3091D7
:1035E000EB003E7F3093EB003091ED003D7F309358
:1035F000ED003091EB0031603093EB007093EC0004
:103600002093ED005093F0002091EE0027FDE5CFD0
:1036100080E008958091FE0187FF13C08091E8004B
:1036200082FF06C08091E8008B778093E80004C099
:103630008091FD018111F2CF08958091FD018823D1
:10364000D9F38091E80080FFF8CF8091E8008E7771
:10365000ECCF2091E4003091E50085E69091EC00FC
:1036600090FF06C09091E80090FF06C080E00895AA
:103670009091E80092FDFACF9091FD01992391F08D
:10368000953091F09091EB0095FD10C04091E400D1
:103690005091E5002417350709F381509A01F1F69E
:1036A00084E0089582E0089583E0089581E008951C
:1036B0000E94C61B0E94CE1BE0EEF0E0808181607C
:1036C0008083E8EDF0E080818F77808319BCA7EDDF
:1036D000B0E08C918E7F8C9380818F7E808310925E
:1036E000FC0108950F931F93CF93DF930E94C61B95
:1036F0000E94CE1BC8EDD0E088818F7788838881B7
:103700008068888388818F7D888319BC1092FD0131
:103710001092F9011092FB011092FA0100EE10E0F4
:10372000F80180818B7F808388818160888342E07B
:1037300060E080E00E94D61AE1EEF0E080818E7FAA
:103740008083E2EEF0E08081816080838081886008
:103750008083F80180818E7F808388818061888367
:10376000DF91CF911F910F910895E8EDF0E08081F6
:103770008F7E8083E7EDF0E080818160808384E04C
:1037800082BF81E08093FC010C94721BE8EDF0E0B5
:1037900080818E7F80831092E20008951092DA007B
:1037A0001092E10008951F920F920FB60F9211240C
:1037B0002F933F934F935F936F937F938F939F9339
:1037C000AF93BF93EF93FF938091E10082FF0BC013
:1037D0008091E20082FF07C08091E1008B7F80939F
:1037E000E1000E94361E8091DA0080FF19C08091AE
:1037F000D80080FF15C08091DA008E7F8093DA00B8
:103800008091D90080FF94C080E189BD82E189BDAB
:1038100009B400FEFDCF81E08093FD010E944C18A9
:103820008091E10080FF19C08091E20080FF15C007
:103830008091E2008E7F8093E2008091E2008061BF
:103840008093E2008091D80080628093D80019BCF8
:1038500085E08093FD010E945E188091E10084FF65
:1038600029C08091E20084FF25C080E189BD82E10A
:1038700089BD09B400FEFDCF8091D8008F7D809373
:10388000D8008091E1008F7E8093E1008091E2007A
:103890008F7E8093E2008091E20081608093E2005D
:1038A0008091F901882309F449C084E08093FD01E7
:1038B0000E945F188091E10083FF29C08091E2009F
:1038C00083FF25C08091E100877F8093E10082E043
:1038D0008093FD011092F9018091E1008E7F809329
:1038E000E1008091E2008E7F8093E2008091E2000F
:1038F00080618093E20042E060E080E00E94D61A9E
:103900008091F00088608093F0000E945D18FF9124
:10391000EF91BF91AF919F918F917F916F915F9147
:103920004F913F912F910F900FBE0F901F901895C0
:1039300019BC1092FD010E945A1872CF8091E300C9
:1039400087FD02C081E0B2CF83E0B0CF1F920F921B
:103950000FB60F9211242F933F934F935F936F9362
:103960007F938F939F93AF93BF93CF93EF93FF93E7
:10397000C091E900CF708091EC001092E900809135
:10398000F000877F8093F00078940E94E21C1092F0
:10399000E9008091F00088608093F000C093E90016
:1039A000FF91EF91CF91BF91AF919F918F917F91B7
:1039B0006F915F914F913F912F910F900FBE0F909C
:1039C0001F9018951F93CF93DF93CDB7DEB7AA97BB
:1039D0000FB6F894DEBF0FBECDBFEEEFF1E08091E1
:1039E000F100819322E0E630F207C9F70E947518D2
:1039F0008091E80083FF42C08091FE019091FF0119
:103A00009A3008F03BC0E92FF0E0E75FF24E0C94EB
:103A1000981F131D371D3E1D371D3E1D921DB41DE1
:103A20003E1D091E161E803879F0823839F58091C6
:103A300002028F708093E9008091EB0085FB88275C
:103A400080F91092E90006C08091FA019091FB0183
:103A5000911182609091E800977F9093E8008093A5
:103A6000F1001092F1008091E8008E772DC0282F90
:103A70002D7F21F48823D1F0823059F18091E80024
:103A800083FF0AC08091E800877F8093E8008091DF
:103A9000EB0080628093EB00AA960FB6F894DEBF2D
:103AA0000FBECDBFDF91CF911F910895809100028D
:103AB000813021F7933009F080E08093FB01109270
:103AC000E9008091E800877F8093E8000E940A1B4C
:103AD000D5CF809100028111F2CF809102028F70C8
:103AE00069F28093E9002091EB0020FFE8CF93304A
:103AF00031F48091EB0080628093EB00E0CF9091F5
:103B0000EB0090619093EB0021E030E001C0220FC8
:103B10008A95EAF72093EA001092EA008091EB0080
:103B20008860EACF8111AACF109100021F7780919F
:103B3000E3008078812B8093E3008091E800877F09
:103B40008093E8000E940A1B8091E80080FFFCCF70
:103B50008091E30080688093E30083E0111101C04D
:103B600082E08093FD018ACF8058823008F086CFB2
:103B700080910002909101028C3D23E09207A1F513
:103B800083E08A838AE289834FB7F894DE01139633
:103B900020E03EE051E2E32FF0E050935700E49143
:103BA00020FF03C0E295EF703F5FEF708E2F90E033
:103BB000EA30C0F0C7968D939D932F5F243159F75B
:103BC0004FBF8091E800877F8093E8006AE270E051
:103BD000CE0101960E94171A8091E8008B7780939E
:103BE000E8004CCFC096E7CFAE014F5F5F4F6091CA
:103BF00002020E945D19BC01892B09F43FCF90910C
:103C0000E800977F9093E80089819A810E94761A54
:103C1000E3CF803809F032CF8091E800877F80932E
:103C2000E8008091F9018093F1001DCF811126CF2A
:103C300090910002923008F021CF8091E800877FB8
:103C40008093E8009093F9010E940A1B8091F9018A
:103C5000882331F084E08093FD010E9461180ECF2B
:103C60008091E30087FDF6CF81E0F5CF0895CF93F3
:103C70008091FD01882399F0C091E900CF70809177
:103C8000EC0080FD0EC080E0C82B1092E90080910E
:103C9000E80083FD0E94E21CCF70C093E900CF9141
:103CA000089580E8F1CF0E945A1E6894B1110C94D7
:103CB000E91E08950E94CE1E88F09F5798F0B92FF4
:103CC0009927B751B0F0E1F0660F771F881F991F51
:103CD0001AF0BA95C9F714C0B13091F00E94E81EED
:103CE000B1E008950C94E81E672F782F8827B85FFD
:103CF00039F0B93FCCF3869577956795B395D9F7A9
:103D00003EF490958095709561957F4F8F4F9F4FB2
:103D10000895E89409C097FB3EF4909580957095BE
:103D200061957F4F8F4F9F4F9923A9F0F92F96E907
:103D3000BB279395F695879577956795B795F1117C
:103D4000F8CFFAF4BB0F11F460FF1BC06F5F7F4F19
:103D50008F4F9F4F16C0882311F096E911C077232B
:103D600021F09EE8872F762F05C0662371F096E834
:103D7000862F70E060E02AF09A95660F771F881F03
:103D8000DAF7880F9695879597F9089557FD90581B
:103D9000440F551F59F05F3F71F04795880F97FB0F
:103DA000991F61F09F3F79F08795089512161306C9
:103DB0001406551FF2CF4695F1DF08C016161706F8
:103DC0001806991FF1CF869571056105089408952D
:103DD000E894BB2766277727CB0197F908950E94BF
:103DE000021F0C94731F0E94651F38F00E946C1F05
:103DF00020F0952311F00C945C1F0C94621F112489
:103E00000C94E91E0E94C61E70F3959FC1F3950F96
:103E100050E0551F629FF001729FBB27F00DB11D4E
:103E2000639FAA27F00DB11DAA1F649F6627B00DDE
:103E3000A11D661F829F2227B00DA11D621F739FC7
:103E4000B00DA11D621F839FA00D611D221F749FD5
:103E50003327A00D611D231F849F600D211D822F1C
:103E6000762F6A2F11249F5750409AF0F1F0882343
:103E70004AF0EE0FFF1FBB1F661F771F881F915070
:103E80005040A9F79E3F510580F00C945C1F0C94A4
:103E9000E91E5F3FE4F3983ED4F3869577956795E6
:103EA000B795F795E7959F5FC1F7FE2B880F911D9A
:103EB0009695879597F9089597F99F6780E870E040
:103EC00060E008959FEF80EC089500240A94161690
:103ED000170618060906089500240A9412161306F8
:103EE000140605060895092E0394000C11F4882386
:103EF00052F0BB0F40F4BF2B11F460FF04C06F5FA2
:103F00007F4F8F4F9F4F089597FB072E16F4009415
:103F100007D077FD09D00E949E1F07FC05D03EF414
:103F2000909581959F4F0895709561957F4F089565
:103F3000EE0FFF1F0590F491E02D0994AA1BBB1B07
:103F400051E107C0AA1FBB1FA617B70710F0A61B99
:103F5000B70B881F991F5A95A9F780959095BC01BA
:103F6000CD010895F999FECF92BD81BDF89A9927A8
:103F700080B50895A8E1B0E042E050E00C94DA1F6B
:103F8000262FF999FECF92BD81BDF89A019700B412
:103F9000021639F01FBA20BD0FB6F894FA9AF99AB2
:103FA0000FBE08950196272F0E94C11F0C94C01FB9
:103FB000DC01CB01FC01F999FECF06C0F2BDE1BDE9
:103FC000F89A319600B40D9241505040B8F70895D8
:043FD000F894FFCF93
:103FD400A3012808140A321E6A17FC17D717A11761
:103FE4006D17013632333534C697404D3639970351
:0E3FF4004A031403DB026E028702A002B90228
:00000001FF
